:020000040000fa
:080000000002040000000000f2
:020000040000fa
:04000800c80200002a
:020000040000fa
:04000c00c802000026
:020000040000fa
:04001000c802000022
:020000040000fa
:04001400c80200001e
:020000040000fa
:04001800c80200001a
:020000040000fa
:04001c00c802000016
:020000040000fa
:04002000c802000012
:020000040000fa
:04002400c80200000e
:020000040000fa
:04002800c80200000a
:020000040000fa
:04002c00c802000006
:020000040000fa
:04003000c802000002
:020000040000fa
:04003400ae08000012
:020000040000fa
:04003800c8020000fa
:020000040000fa
:04003c00c8020000f6
:020000040000fa
:04004000c8020000f2
:020000040000fa
:04004400c8020000ee
:020000040000fa
:04004800c8020000ea
:020000040000fa
:04004c00c8020000e6
:020000040000fa
:04005000c8020000e2
:020000040000fa
:04005400c8020000de
:020000040000fa
:04005800c8020000da
:020000040000fa
:04005c00c8020000d6
:020000040000fa
:04006000c8020000d2
:020000040000fa
:04006400c8020000ce
:020000040000fa
:04006800c8020000ca
:020000040000fa
:04006c00c8020000c6
:020000040000fa
:04007000c8020000c2
:020000040000fa
:04007400c8020000be
:020000040000fa
:04007800c8020000ba
:020000040000fa
:04007c00c8020000b6
:020000040000fa
:04008000c8020000b2
:020000040000fa
:04008400c8020000ae
:020000040000fa
:04008800c8020000aa
:020000040000fa
:04008c00c8020000a6
:020000040000fa
:04009000c8020000a2
:020000040000fa
:04009400c80200009e
:020000040000fa
:04009800c80200009a
:020000040000fa
:04009c00c802000096
:020000040000fa
:0400a000c802000092
:020000040000fa
:0400a400c80200008e
:020000040000fa
:0400a800c80200008a
:020000040000fa
:0400ac00c802000086
:020000040000fa
:0400b000c802000082
:020000040000fa
:0400b400c80200007e
:020000040000fa
:0400b800c80200007a
:020000040000fa
:0400bc00c802000076
:020000040000fa
:0400c000c802000072
:020000040000fa
:0400c400c80200006e
:020000040000fa
:0400c800c80200006a
:020000040000fa
:0400cc00c802000066
:020000040000fa
:0400d000c802000062
:020000040000fa
:0400d400c80200005e
:020000040000fa
:0400d800c80200005a
:020000040000fa
:0400dc00c802000056
:020000040000fa
:0400e000c802000052
:020000040000fa
:0400e400c80200004e
:020000040000fa
:0400e800c80200004a
:020000040000fa
:0400ec00c802000046
:020000040000fa
:0400f000c802000042
:020000040000fa
:0400f400c80200003e
:020000040000fa
:0400f800c80200003a
:020000040000fa
:0400fc00c802000036
:020000040000fa
:04010000c802000031
:020000040000fa
:04010400c80200002d
:020000040000fa
:04010800c802000029
:020000040000fa
:04010c00c802000025
:020000040000fa
:04011000c802000021
:020000040000fa
:04011400c80200001d
:020000040000fa
:04011800c802000019
:020000040000fa
:04011c00c802000015
:020000040000fa
:04012000c802000011
:020000040000fa
:04012400c80200000d
:020000040000fa
:04012800c802000009
:020000040000fa
:04012c00c802000005
:020000040000fa
:04013000c802000001
:020000040000fa
:04013400c8020000fd
:020000040000fa
:04020800c802000028
:020000040000fa
:04020c00c802000024
:020000040000fa
:04021000c802000020
:020000040000fa
:04021400c80200001c
:020000040000fa
:04021800c802000018
:020000040000fa
:04021c00c802000014
:020000040000fa
:04022000c802000010
:020000040000fa
:04022400c80200000c
:020000040000fa
:04022800c802000008
:020000040000fa
:04022c00c802000004
:020000040000fa
:04023000c802000000
:020000040000fa
:04023400c8020000fc
:020000040000fa
:04023800c8020000f8
:020000040000fa
:04023c00c8020000f4
:020000040000fa
:04024000c8020000f0
:020000040000fa
:04024400c8020000ec
:020000040000fa
:04024800c8020000e8
:020000040000fa
:04024c00c8020000e4
:020000040000fa
:04025000c8020000e0
:020000040000fa
:04025400c8020000dc
:020000040000fa
:04025800c8020000d8
:020000040000fa
:04025c00c8020000d4
:020000040000fa
:04026000c8020000d0
:020000040000fa
:04026400c8020000cc
:020000040000fa
:04026800c8020000c8
:020000040000fa
:04026c00c8020000c4
:020000040000fa
:04027000c8020000c0
:020000040000fa
:04027400c8020000bc
:020000040000fa
:04027800c8020000b8
:020000040000fa
:04027c00c8020000b4
:020000040000fa
:04028000c8020000b0
:020000040000fa
:04028400c8020000ac
:020000040000fa
:04028800c8020000a8
:020000040000fa
:04028c00c8020000a4
:020000040000fa
:04029000c8020000a0
:020000040000fa
:04029400c80200009c
:020000040000fa
:04029800c802000098
:020000040000fa
:04029c00c802000094
:020000040000fa
:0402a000c802000090
:020000040000fa
:0402a400c80200008c
:020000040000fa
:0402a800c802000088
:020000040000fa
:0402ac00c802000084
:020000040000fa
:0402b000c802000080
:020000040000fa
:0402b400c80200007c
:020000040000fa
:0402b800c802000078
:020000040000fa
:0402bc00c802000074
:020000040000fa
:0402c000c802000070
:020000040000fa
:0402c400c80200006c
:020000040000fa
:0402c800c802000068
:020000040000fa
:0402cc00c802000064
:020000040000fa
:0402d000c802000060
:020000040000fa
:0402d400c80200005c
:020000040000fa
:0402d800c802000058
:020000040000fa
:0402dc00c802000054
:020000040000fa
:0402e000c802000050
:020000040000fa
:0402e400c80200004c
:020000040000fa
:0402e800c802000048
:020000040000fa
:0402ec00c802000044
:020000040000fa
:0402f000c802000040
:020000040000fa
:0402f400c80200003c
:020000040000fa
:0402f800c802000038
:020000040000fa
:0402fc00c802000034
:020000040000fa
:04030000c80200002f
:020000040000fa
:04030400c80200002b
:020000040000fa
:04030800c802000027
:020000040000fa
:04030c00c802000023
:020000040000fa
:04031000c80200001f
:020000040000fa
:04031400c80200001b
:020000040000fa
:04031800c802000017
:020000040000fa
:04031c00c802000013
:020000040000fa
:04032000c80200000f
:020000040000fa
:04032400c80200000b
:020000040000fa
:04032800c802000007
:020000040000fa
:04032c00c802000003
:020000040000fa
:04033000c8020000ff
:020000040000fa
:04033400c8020000fb
:020000040000fa
:100400008f8d20000e7f22000e018800000000006a
:10041000000020000000e000020032000001200087
:1004200020028800140007007b0007000000e000a5
:1004300003003a00808f20000100200002003700f6
:100440000000200001002000810f70000100320038
:1004500014000700000020000000e000020032004d
:10046000000002000000000020090200000000005f
:100470000040da000000fe004440a9000000200017
:100480000000e0000300320000002000a00188000e
:100490004440a800000006008a1f78008b1f7800e7
:1004a0000000060091018800800478000000eb0045
:1004b0001a003700e284440032a0b4009905ba0063
:1004c000e284440032a0b4009906ba00e2844400f9
:1004d00032a0b4000006eb00476fde00fd07b2005b
:1004e000636ce10003003a00ebff07000000eb0043
:1004f0000a003700606ce10004003a00005deb0088
:100500008b05e900fdff3e00040037006168e10053
:10051000010032000086eb000b00070019c7ba008b
:100520001905ba000e04e00003003a000a00e000da
:10053000e0ff3a0000000600fe07b2009e018800be
:100540008a047800f5ff3700395dba008b05e900b1
:100550000c003200295dba008b05e900080032006a
:100560000c00e00003003a00e284440032a0b40032
:10057000f5ff370019ddba008b05e900faff3a00f4
:100580008904e800e184440032a0b40000000600c1
:100590000040da000000fe0099a0a90001e6a900d1
:1005a00089a0a900000006000e26ef00e702620005
:1005b00099a0a900f6f82f0089a0a900c42add009f
:1005c000a70b2000970b63006802620000308800d0
:1005d0004322de0011308800610262006230880030
:1005e00006007800233088004d22dd00ba00b600f6
:1005f00000807200d0058800f0ff2d009800b60042
:1006000000007200c004880001e6a8000000060097
:10061000203088000000060000000500889fbe0012
:100620008a9fbe0030044200b0844a0030054b006f
:1006300090854b006000b1000898be000a90be0093
:100640000440e10005c8e10006d0e10007d8e10060
:1006500002003100680040001008e8004f05be00ad
:100660004f04be0000000600889fbe008a9fbe00a7
:100670003004be002005be000418540005985c003c
:1006800006185d0007985d00110020000440e1009d
:1006900005c8e10006d0e10007d8e10001003900fb
:1006a0008000eb00108810004f05be004f04be0014
:1006b000000006001200fa00889fbe008a9fbe005c
:1006c0008c9fbe00e0b79f00f1b79f0082bf9f00e4
:1006d00093bf9f000605be000404be000000eb00af
:1006e000d0b79f00c0b79f00b0b79f00a0b79f00d2
:1006f00090b79f000006eb005fb19700cfb0970066
:10070000820141003fb097000200e00004003d007c
:10071000370007007e805700c0ff07000300370046
:10072000330007007e805700cfff0700dfb6970039
:100730000d00e0000c0035006fb29700ffb297008b
:100740000fbb97009fbb9700100020000100200006
:100750006011b8000002720081827200020373000f
:10076000838373001b0007000c06e80001042000cf
:10077000810f5600e0ff3a000d00e00004003d004c
:100780000802be000a03be007e805700a3ff0700d8
:100790005fa897000000e00005003a001fb2970034
:1007a000afb297003fb39700cfb39700090007009f
:1007b0006fb09700ffb097000fb997009fb99700ef
:1007c0004f06be004f05be004f04be000080fa0079
:1007d000000006000100070000000600a4b79f000b
:1007e000b5b79f00c6b79f00d7b79f0000000600af
:1007f0004f09de0082817100b3b79f004f01de0018
:100800008180400082807000a1b79f008fb0970068
:100810004f09de00000040000200700090b79f000a
:100820007fa897004f01de00818040008280700029
:1008300081b79f000d0007004f3ade000000400026
:1008400004007000f0af9f0008000700040242009f
:1008500085824a0006034b0087834b00dfff0700b9
:100860000802be000a03be00000006002fb2970077
:10087000bfb297004fb39700dfb3970000000600a8
:10088000881f780018002000881f780089ff070063
:100890008f87e9004f04780000000600801feb00fe
:1008a00084ff07008f87e90000000600889fbe00d4
:1008b0008a9fbe00e00f5000e08f5800e00f590003
:1008c000e08f59000c003d006044b8006055b8004e
:1008d0000000540081805c0002015d0083815d00a6
:1008e000180020001500070008003d001800070050
:1008f0000004eb00050037000004eb000f000700c8
:1009000002003d001200070018002000dcff070075
:100910000800e000060032006022b8006033b80032
:100920000000520081805a0002015b0083815b005d
:100930004f05be004f04be0000000600e00f52004d
:10094000e08f5a00e00f5b00e08f5b0000000600c4
:100950006044b8006055b8000402540085825c0011
:1009600006035d0087835d0000000600889fbe00cf
:100970008a9fbe008c1f7800e00f5000e08f580067
:10098000e00f5900e08f59000d003d006044b800b1
:100990006055b8000000540081805c0002015d00d9
:1009a00083815d001c0020000820e10009a8e1000f
:1009b0000ab0e1000bb8e1000d003d00080037006f
:1009c0000006eb00e00f5200e08f5a00e00f5b00e2
:1009d000e08f5b0006003d006044b8006055b80041
:1009e0000402540085825c0006035d0087835d007d
:1009f000aaff07000c00e000060032006022b800e9
:100a00006033b8000000520081805a0002015b0090
:100a100083815b004f0678004f05be004f04be0087
:040a200000000600cc
:020000040000fa
:100a24000a00fa0030302800000f7800f03f200060
:100a34001007980010002000200798000000eb0029
:100a4400300798000000eb0040079800d1fe070033
:100a54004e0090000040780000427800be019000f3
:100a64002e0190009e0090001e007800cdfe07002d
:100a74000080fa00000006000000fa00e8ff07000a
:100a840000cc25005101200000408800114088005e
:100a9400004080001140800000007800bc00070086
:100aa400406a2000010020000040880011408800b6
:100ab4008003200040308800004080001140800006
:100ac40000007800b200070000cc2500510120008e
:100ad40000408800114088000040800011408000e0
:100ae40000007800aa000700406a200001002000ee
:100af4000040880011408800c00020004030880079
:100b0400004080001140800000007800a000070031
:100b140000cc2500510120000040880011408800cd
:100b24000040800011408000000078009800070019
:100b3400007d200001002000004088001140880052
:100b440010002000403088000040800011408000e8
:100b5400000078008e00070000cc25005101200021
:100b6400004088001140880000408000114080004f
:100b74000000780086000700007d200001002000ae
:100b84000040880011408800600020004030880048
:100b94000040800011408000000078007c000700c5
:100ba40048000700020007000080fa000000060069
:100bb4000000fa00007d20000100200000408800b1
:100bc400114088000000eb0090fe07002000200088
:100bd400403088000600370000408000114080004b
:100be40061005000e08058000040880011408800f7
:100bf4000040800011408000e00f5000e08f58005a
:100c0400f5ff3a000080fa00000006000000fa0038
:100c1400007d200001002000004088001140880071
:100c24000000eb0079fe0700000820004030880037
:100c34000600370000408000114080006100500031
:100c4400e080580000408800114088000040800087
:100c540011408000e00f5000e08f5800f5ff3a008b
:100c64000080fa00000006000000fa00007d200069
:100c74000100200000408800114088000000eb00c3
:100c840062fe0700000c2000403088000600370098
:100c9400004080001140800061005000e080580056
:100ca400004088001140880000408000114080000e
:100cb400e00f5000e08f5800f5ff3a000080fa0082
:100cc400000006000000fa00007d20000100200062
:100cd40000408800114088000000eb004bfe070034
:100ce40010002000403088000600370000408000db
:100cf4001140800061005000e080580000408800ee
:100d0400114088000040800011408000e00f500036
:100d1400e08f5800f5ff3a000080fa00000006005a
:100d24000200fa00004f7800406a20000100200011
:100d340000408800114088001000200033fe0700a6
:100d44001e00fb0040308800060037000040800091
:100d54001140800061005000e0805800004088008d
:100d6400114088000040800011408000e00f5000d6
:100d7400e08f5800f5ff3a0000000000000000007a
:100d840000000000000000000080fa0000000600df
:100d94000200fa00000f7800010037001e0fe9007e
:100da4001e0078000000e000fcff3a000080fa001a
:100db400000006000400fa00100798000040eb0051
:100dc400004f780010c0b300104798008fff070051
:100dd400110037001e009000104078009e00900023
:100de4008100e80011079800cdff07001e4078003d
:100df400f34f5000070036001e409000e14f5000b2
:100e040004003a0098ff07001e4090000040e800ec
:100e1400104798001e4fe8001e0090001040780014
:100e24000004e000ebff3a000080fa000000060036
:100e34000200fa00000f7800040037001e0078005a
:100e4400104078001e0fe800b5ff07001e00780070
:100e5400104078000004e000f8ff3a000080fa0037
:100e6400000006000400fa0020479800007d2000de
:100e74000100200000408800114088000000eb00c1
:100e8400e2fd0700ae40900000ccb30000cf70003c
:100e94001e80fb00403088000600370000408000c0
:100ea4001140800061005000e0805800004088003c
:100eb400114088000040800011408000e00f500085
:100ec400e08f5800f5ff3a000080fa0000000600a9
:100ed4000400fa0020479800007d20000100200053
:100ee40000408800114088000000eb00c7fd0700a7
:100ef400ae40900000c8b30000cf70001e80fb001d
:100f04004030880006003700004080001140800017
:100f140061005000e08058000040880011408800c3
:100f24000040800011408000e00f5000e08f580026
:100f3400f5ff3a000080fa00000006000000fa0005
:100f440021088000f0fc2f00008060000040a00019
:100f5400200888000080eb00100888000021ef00c2
:100f640021058000f0ff28000080600000d0a00070
:100f7400200588008460a9009460a80005e1a80009
:100f84000080fa00000006000400fa009460a80043
:100f9400000000009460a900208d2000010880005a
:100fa400010878002040800031408000008fbe009e
:100fb400208d200010007800e10f400004003a006a
:100fc4001e00be0061005000e0805800008fbe008b
:100fd4000e00780090407800408d20000148780091
:100fe4000e0078000000e80090407800508d20004a
:100ff400014878000e0078000080e80090407800f6
:10100400608d2000014878000e00780063004000e5
:1010140090407800708d2000014878002004800002
:10102400680060000000e000d8ff3a009460a80067
:101034000080fa00000006000000fa00d2ff07005a
:10104400208d20001000be000080fa000000060081
:101054000400fa00ccff07000e007800318d200058
:1010640091407800014878000e0078000000e80004
:10107400418d200091407800014878000e007800ee
:101084000080e800518d20009140780001487800ec
:101094000e00780063004000618d200091407800cc
:1010a400014878001e00be000080fa00000006001f
:1010b4000400fa00b4ff07000e007800418d200000
:1010c40091407800014878000e0078000000e800a4
:1010d400518d200091407800014878000e0078007e
:1010e4000080e800618d200091407800014878007c
:1010f4000e00780063004000718d2000914078005c
:10110400014878001e00be000080fa0000000600be
:101114000400fa00008fbe001e02be006033b80057
:10112400f0012000010020006011b800000042001e
:1011340081804a0002014b0083814b00e4032000bc
:10114400050020006033b800ccfd07000000be009d
:101154000080fa0000000600809fbe000000fa0034
:10116400204080003140800061004000e080480061
:1011740020408800314088008460a9000080fa0083
:101184004f00be00004006000000fa000001eb0022
:101194006004200071052000237420008049780039
:1011a400814978008249780000002300203a8800b1
:1011b4004827ef000080fa00000006000000fa0053
:1011c400c002a900c022a900d2c2a800d3a2a800cc
:1011d400c0e2a800d2e2a800e5a2a900e582a90025
:0c11e400e5e2a9000080fa00000006000f
:020000040000fa
:1011f000c80800000a000000020000000100000012
:1012000000640000900100000000000008080000d9
:10121000c000000000000000000800000400000002
:1012200000000000d20800000600000000000000de
:10123000040800000400000000000000000000009e
:020000040000fa
:101240000000fa00d1ff0700ddff0700ffff3700b5
:020000040000fa
:020000040002f8
:04aff800bff900009d
:020000040000fa
:020000040002f8
:04affc007f3f000093
:00000001FF
